IP 10.0.0.1.11111 > 10.0.0.2.22222: UDP, length 0
	0x0000:  0088 99aa bb00 0022 3344 5500 0800 4500
	0x0010:  001c 0000 4000 4011 26cf 0a00 0001 0a00
	0x0020:  0002 2b67 56ce 0008 69a6
