15:28:54.581151 IP6 a00::1.11111 > a00::2.22222: UDP, length 0
	0x0000:  0088 99aa bb00 0022 3344 5500 86dd 6000
	0x0010:  0000 0008 1140 0a00 0000 0000 0000 0000
	0x0020:  0000 0000 0001 0a00 0000 0000 0000 0000
	0x0030:  0000 0000 0002 2b67 56ce 0008 69a6
